:020000040800F2
:10000000B010002061050008D5050008D5050008DE
:10001000D5050008D5050008D5050008000000003A
:10002000000000000000000000000000D5050008EE
:10003000D50500080000000021050008F1040008B3
:10004000D5050008D5050008D5050008D505000828
:10005000D5050008D5050008D5050008D505000818
:10006000D5050008D5050008D5050008D505000808
:10007000D5050008D5050008D5050008D5050008F8
:10008000D5050008D5050008D5050008D5050008E8
:10009000D5050008D5050008D5050008D5050008D8
:1000A000D5050008D5050008D5050008D5050008C8
:1000B000D5050008D5050008D5050008D5050008B8
:1000C000D5050008D5050008D5050008D5050008A8
:1000D000D5050008D5050008D5050008D505000898
:1000E000D5050008D5050008D5050008D505000888
:1000F000D5050008D5050008D5050008D505000878
:10010000D5050008D5050008D5050008D505000867
:10011000D5050008D5050008D5050008D505000857
:10012000D5050008D5050008D5050008D505000847
:10013000D5050008D5050008D5050008D505000837
:10014000D5050008D5050008D5050008D505000827
:10015000D5050008D5050008D5050008D505000817
:10016000D5050008D5050008D5050008D505000807
:10017000D5050008D5050008D5050008D5050008F7
:10018000D5050008D505000880B485B000AF7860BB
:1001900039607B68FB6007E0FB684FF000021A7073
:1001A000FB6803F10103FB607A683B68D218FB68C7
:1001B0009A42F1D807F11407BD4680BC704700BFD2
:1001C00080B483B000AF03463960FB7197F9073004
:1001D000002B10DA4FF46D43CEF20003FA7902F0EF
:1001E0000F02A2F104013A68D2B24FEA0212D2B26F
:1001F0005B181A760DE04FF46143CEF2000397F9D5
:1002000007103A68D2B24FEA0212D2B25B1883F8F2
:10021000002307F10C07BD4680BC704780B582B053
:1002200000AF78607A686FF07F439A4202D94FF04E
:1002300001031FE04EF21003CEF200037A6822F0B1
:100240007F4202F1FF325A604FF0FF304FF00F0152
:10025000FFF7B6FF4EF21003CEF200034FF000029C
:100260009A604EF21003CEF200034FF007021A60BC
:100270004FF00003184607F10807BD4680BD00BFD8
:1002800080B582B000AF00F007FB40F65403C2F225
:1002900000031B681B68002B02D14FF0000335E000
:1002A00040F65403C2F200031B689B6803F5007319
:1002B0007B607B6883F309886FF001004FF0FF01DA
:1002C000FFF77EFF40F23043C2F200031A6844F6A3
:1002D000D353C1F26203A3FB02134FEA93131846F0
:1002E000FFF79CFF4FF003033B603B6883F31488E8
:1002F000BFF36F8F40F65403C2F200031B685B69C3
:1003000003F120039B69984700F054FD184607F15C
:100310000807BD4680BD00BF80B586B000AFF8605D
:10032000B9607A604FF01C0000F090FD03467B61DD
:100330007B69002B02D14FF000034BE078694FF04E
:100340001C01FFF721FF7869F968BA687B6800F043
:1003500047F802467B699A607B699B68002B05D150
:10036000786900F07BFD4FF0000333E07B697A6928
:100370001A607B697A695A607B69FA68DA607B691E
:100380004FF000021A7440F66003C2F200031B78BB
:10039000002B13D140F65403C2F200037A691A60AD
:1003A00040F66003C2F200031B7803F10103DAB2E6
:1003B00040F66003C2F200031A700AE040F65403EC
:1003C000C2F200031B68786919464FF0000200F082
:1003D000EFF97B69184607F11807BD4680BD00BFDD
:1003E00080B588B000AFF860B9607A603B604FF0CC
:1003F0000003FB614FF00003BB61BB684FEA83035E
:10040000184600F023FD03467B617B69002B02D177
:100410004FF0000330E0BB684FEA83037869194668
:10042000FFF7B2FE7B69FB6107E0FB694FF05A32D0
:100430001A60FB6903F10403FB617B6903F110029D
:10044000FB699A42F1D8BB684FEA83027B69D318F3
:10045000A3F14002FB685A61FB685B6903F120036A
:10046000BB613A68BB691A60BB697A689A61BB690B
:100470004FF08072DA617B69184607F12007BD46AC
:1004800080BD00BF80B400AF40F65403C2F2000349
:100490001B681A6840F65403C2F200031B689A42B4
:1004A00016D040F65403C2F200031B681A6840F6E7
:1004B0005803C2F200031A604FF46D43CEF20003FA
:1004C0004FF46D42CEF20002526842F080525A6000
:1004D000BD4680BC704700BF80B400AF40F65C03EF
:1004E000C2F200031B681846BD4680BC704700BFBF
:1004F00080B500AF40F65C03C2F200031B6803F155
:10050000010240F65C03C2F200031A60FFF7BAFF73
:1005100080BD00BF000000000000000000000000DF
:1005200072B6EFF3098020E9F00F0A490B6803F176
:1005300014031860064A12680A605069B0E8F00FA8
:1005400080F3098862B67047AFF30080AFF3008094
:100550005808002054080020AFF30080AFF300805B
:1005600080B483B000AF41F22063C0F600037B602B
:1005700040F20003C2F200033B600BE07B681A68A4
:100580003B681A603B6803F104033B607B6803F13E
:1005900004037B603A6840F65403C2F200039A42B7
:1005A000ECD30A480A494FF000028842B8BF40F82D
:1005B000042BFFF6FAAF00F009FA00F0FFFB00F0A1
:1005C0000DF807F10C07BD4680BC704754080020A9
:1005D000B008002080B400AFFEE700BF80B500AFD8
:1005E00000F0F4F900F03CFA00F0B0F840F27D635E
:1005F000C0F600034FF0800019464FF00002FFF7ED
:100600008BFE024640F6A003C2F200031A6040F2DD
:10061000B163C0F600034FF0800019464FF00002AE
:10062000FFF77AFE024640F69C03C2F200031A600E
:1006300040F2E563C0F600034FF0800019464FF02A
:100640000002FFF769FE024640F6A403C2F200036F
:100650001A6040F21973C0F600034FF0800019468B
:100660004FF00002FFF758FE024640F6A803C2F220
:1006700000031A60FFF704FE00F09CFB80B500AF9A
:10068000FFF72AFF034603F08003002B07D04FF447
:100690004063C4F202034FF480521A83F0E74FF430
:1006A0004063C4F202034FF480525A83E8E700BF6C
:1006B00080B500AFFFF710FF034603F48073002BF3
:1006C00007D04FF44063C4F202034FF400521A8380
:1006D000F0E74FF44063C4F202034FF400525A8330
:1006E000E8E700BF80B500AFFFF7F6FE034603F46E
:1006F0000073002B07D04FF44063C4F202034FF4A1
:1007000080421A83F0E74FF44063C4F202034FF4CF
:1007100080425A83E8E700BF80B500AFFFF7DCFEF8
:10072000034603F48063002B07D04FF44063C4F208
:1007300002034FF400421A83F0E74FF44063C4F21F
:1007400002034FF400425A83E8E700BF80B400AFD1
:100750004FF46053C4F202034FF46052C4F2020239
:10076000126B42F008021A634FF44063C4F20203B2
:100770004FF44062C4F20202126842F0AA421A60C8
:100780004FF44063C4F202034FF44062C4F2020229
:10079000926842F07F429A604FF44063C4F20203D1
:1007A0004FF00002DA6000BFBD4680BC704700BF5A
:1007B00080B584B000AFF860B9607A60BB681B6830
:1007C000F868B9681A4600F04FF807F11007BD46FF
:1007D00080BD00BF80B584B000AFF860B9607A60BA
:1007E000BB685B68F8681946BA6800F03DF807F125
:1007F0001007BD4680BD00BF80B586B000AFF86071
:10080000B9607A60BB687B6102E07B691B687B61D1
:100810007B691B68002BF8D17B691B68F8687969D4
:100820001A4600F021F807F11807BD4680BD00BF49
:1008300080B586B000AFF860B9607A60BB687B6154
:1008400002E07B695B687B617B695B68002BF8D1A8
:100850007B695B68F86819467A6900F005F807F16A
:100860001807BD4680BD00BF80B485B000AFF860FA
:10087000B9607A607B68FA685A60FB687A681A60C7
:10088000FB68BA685A60BB68FA681A6007F1140717
:10089000BD4680BC704700BF80B58CB000AF4FF044
:1008A0000003BB624FF00003FB624FF000033B62AA
:1008B0004FF000037B624FF00003BB614FF0000379
:1008C000FB614FF000033B614FF000037B614FF091
:1008D00000033B604FF000037B604FF00003BB6000
:1008E0004FF00003FB6007F1180207F128031046E0
:1008F00019464FF00002FFF75BFF07F1200207F1F6
:100900001803104619464FF00002FFF763FF07F186
:10091000100207F11803104619464FF00002FFF7C6
:1009200047FF3A4607F11003104619464FF0000200
:10093000FFF77EFF07F108023B46104619464FF0CD
:100940000002FFF759FF7B68002B36D13A6807F1A8
:1009500028039A4231D1FA6A3B469A422DD1BA6AAB
:1009600007F120039A4228D17A6A07F128039A42B4
:1009700023D13A6A07F118039A421ED1BA6907F1E6
:1009800010039A4219D1FA6907F120039A4214D14F
:100990003A6907F108039A420FD17A6907F11803FF
:1009A0009A420AD1BB68002B07D1FA6807F11003FD
:1009B0009A4202D14FF0010301E04FF00003DBB295
:1009C000184607F13007BD4680BD00BF80B500AFB7
:1009D0004FF46053C4F202034FF46052C4F20202B7
:1009E000126842F001021A604FF46053C4F202032D
:1009F0004FF000029A604FF46053C4F202034FF4C8
:100A00006052C4F20202126822F0847222F4803230
:100A10001A604FF46053C4F2020343F21002C2F2B0
:100A200000425A604FF46053C4F202034FF4605224
:100A3000C4F20202126822F480221A604FF460535A
:100A4000C4F202034FF00002DA6000F0C1F84FF484
:100A50006D43CEF200034FF000629A6080BD00BF8C
:100A600080B487B000AF4FF000033B614FF000034C
:100A70007B614FF00203FB604FF00003BB604FF05F
:100A800002037B604FF46053C4F202039B6803F0DF
:100A90000C033B613B69042B0DD0082B15D0002BB8
:100AA00069D140F23043C2F200034FF41052C0F259
:100AB000F4021A6069E040F23043C2F200034FF4DE
:100AC0009052C0F27A021A605FE04FF46053C4F2B1
:100AD00002035B6803F480034FEA9353BB604FF457
:100AE0006053C4F202035B6803F03F037B60BB68A2
:100AF000002B14D04FF49053C0F27A037A68B3FB02
:100B0000F2F24FF46053C4F20203596847F6C0731F
:100B10000B404FEA931303FB02F37B6113E04FF4A6
:100B20001053C0F2F4037A68B3FBF2F24FF460534F
:100B3000C4F20203596847F6C0730B404FEA93139F
:100B400003FB02F37B614FF46053C4F202035B6862
:100B500003F440334FEA134303F101034FEA430325
:100B6000FB607A69FB68B2FBF3F240F23043C2F2F9
:100B700000031A6009E040F23043C2F200034FF470
:100B80001052C0F2F4021A6000BF4FF46053C4F276
:100B900002039B6803F0F0034FEA131240F2344360
:100BA000C2F200039B5CDBB23B6140F23043C2F215
:100BB00000031A683B6922FA03F240F23043C2F2A2
:100BC00000031A6007F11C07BD4680BC704700BFD8
:100BD00080B483B000AF4FF000037B604FF00003A0
:100BE0003B604FF46053C4F202034FF46052C4F20E
:100BF0000202126842F480321A604FF46053C4F269
:100C000002031B6803F400333B607B6803F10103BC
:100C10007B603B68002B03D17B68B3F5A06FECD100
:100C20004FF46053C4F202031B6803F40033002B3B
:100C300003D04FF001033B6002E04FF000033B6044
:100C40003B68012B40F082804FF46053C4F20203F2
:100C50004FF46052C4F20202126C42F080521A64E5
:100C60004FF4E043C4F200034FF4E042C4F2000248
:100C7000126842F480421A604FF46053C4F20203D7
:100C80004FF46052C4F2020292689A604FF46053CB
:100C9000C4F202034FF46052C4F20202926842F4BA
:100CA00000429A604FF46053C4F202034FF4605262
:100CB000C4F20202926842F4A0529A604FF4605368
:100CC000C4F2020345F20842C0F240725A604FF487
:100CD0006053C4F202034FF46052C4F2020212687D
:100CE00042F080721A6000BF4FF46053C4F20203F6
:100CF0001B6803F00073002BF6D04FF47053C4F25E
:100D0000020340F205621A604FF46053C4F202031A
:100D10004FF46052C4F20202926822F003029A6019
:100D20004FF46053C4F202034FF46052C4F2020263
:100D3000926842F002029A6000BF4FF46053C4F21E
:100D400002039B6803F00C03082BF6D107F10C0794
:100D5000BD4680BC704700BF80B485B000AF7860EE
:100D600040F66403C2F200031B68002B08D140F672
:100D70006403C2F2000341F2B002C2F200021A6040
:100D800040F66403C2F200031B68FB6040F6640394
:100D9000C2F200031A687B68D21840F66403C2F2FC
:100DA00000031A60FB68184607F11407BD4680BCB3
:100DB000704700BF80B400AFFEE700BF80B582B0CF
:100DC00000AF40F20002C0F2000240F20003C0F2A5
:100DD0000003D31A4FEAA3033B604FF000037B608C
:100DE0000BE040F20003C0F200037A6853F82230AF
:100DF00098477B6803F101037B607A683B689A42FD
:100E0000EFD340F20002C0F2000240F20003C0F251
:100E10000003D31A4FEAA3033B604FF000037B604B
:100E20000BE040F20003C0F200037A6853F822306E
:100E300098477B6803F101037B607A683B689A42BC
:100E4000EFD307F10807BD4680BD00BF40F228433D
:100E5000C2F200030146186800F008B840F22843C7
:100E6000C2F200030146186800F010BB2DE9F04FF4
:100E700001F10B05162D83B0064627D935F007057D
:100E800027D4A94225D8304600F09EFAB5F5FC7F5C
:100E900023D2BA4F4FEAD50C07EBCC02D468944268
:100EA00000F0DE816368E268A16823F00300231884
:100EB000CA605868916040F001025A60304600F004
:100EC00085FA0834204603B0BDE8F08F1025A9420A
:100ED000D9D90C2434600024F4E75FEA552C00F0E3
:100EE0008B80BCF1040F00F255814FEA951707F192
:100EF000380E4FEA4E01A14F07EB8101CC68A142A9
:100F000005D10CE0002A7CDAE468A14207D06368CE
:100F100023F00300421B0F2AF4DD0EF1FF3E0EF119
:100F2000010C964B3C6903F1080E744500F0758185
:100F3000616821F003014A1B0F2A00F35B81002A3C
:100F4000C3F814E0C3F810E069DAB1F5007F80F06F
:100F50002F81CA0803EBC2014FF00109921009FA70
:100F600002F95A688868E16049EA0209A060C3F89A
:100F700004908C60C46001204FEAAC0400FA04F0D5
:100F8000484556D819EA000F07D12CF0030C400051
:100F900019EA000F0CF1040CF9D007EBCC094C4610
:100FA000E046E3689C4207D13AE1002A80F2628180
:100FB000DB689C4200F03481596821F003014A1B30
:100FC0000F2AF2DD1C465919D86854F808CF8A5008
:100FD00045F0010542F00102CCF80C00C0F808C051
:100FE0005D6079613961C1F80CE0C1F808E04A60E0
:100FF000304600F0EBF965E74FEAD50E4FEA4E01B7
:1010000079E72218E3685068A16840F00100506059
:10101000CB609960304600F0D9F9083452E7611886
:1010200030464B6843F001024A6000F0CFF90834C3
:1010300048E7BC68606820F00309A94504D3C5EB04
:1010400009030F2B00F38D804D4A4E4B1168186831
:10105000013104EB090B05EB000300F05A8103F5A5
:1010600080500F3020F47F6121F00F0C6146304634
:101070008DE8041000F0ACF9B0F1FF3F80469DE828
:10108000041000F05281834500F20F81DFF800A1C7
:10109000DAF80030C3456344CAF8003000F04A81F2
:1010A0001268013200F05781CBEB080B5B44CAF8A1
:1010B000003018F0070100F00B81C1F10800C1F504
:1010C0008053804403F1080208EB0C010805030D6E
:1010D000C3EB020B3046594600F07AF9431C00F08E
:1010E0004681C8EB00020BEB020141F00100DAF887
:1010F0000030C7F808805B44BC42CAF80030C8F82A
:10110000040015D0B9F10F0F40F2F2806168A9F127
:101110000C0222F00702A01801F0010C42EA0C0EAA
:1011200005210F2AC4F804E04160816000F21781B4
:10113000154ABC681068834288BF1360134A11685F
:101140008B4288BF1360636823F00300A842C5EB9D
:10115000000301D30F2B04DC304600F037F90024E4
:10116000B0E6621943F0010145F0010565603046C3
:101170005160BA6000F02AF90834A3E64404002064
:1011800050080020700800206C080020680800202B
:1011900074080020BCF1140F7BD9BCF1540F00F28D
:1011A0008D804FEA153404F16E0E4FEA4E01A2E62F
:1011B000480A042872D9142800F2AE8000F15B09B5
:1011C0004FEA490207EB8200DFF8F081836883422F
:1011D00000F081805A6822F00302914202D29B689B
:1011E0009842F7D1DA68D7F80490E260A360DC6037
:1011F0009460C0E6611942F0010045F001056560A8
:10120000596119614860C1F80CE0C1F808E08A50E2
:10121000304600F0DBF8083454E6D3F80490AAE630
:1012200008F10108083418F0030F7FF4BAAE4946FC
:101230001CF0030FA1F108040CF1FF3C00F0B0809A
:101240000968A142F4D07C684000A0423FF6F1AEAC
:1012500000283FF4EEAE044200F0A780C4469CE6AE
:1012600004F108036469A34208BF0CF1020C3FF4C7
:1012700058AE17E659181C464868DB6854F8082F22
:1012800040F001004860D3609A60304600F09EF85C
:1012900018E60CF15B0E4FEA4E012CE64FEA91186E
:1012A00008F138094FEA49028CE7BC423FF4EEAE40
:1012B000424CA468626822F0030047E7BCF5AA7FAD
:1012C0001CD84FEAD53202F1770E4FEA4E0112E6F2
:1012D0004FF48052F8E6D8F804004FEAA902012141
:1012E00001FA02F242EA0009C8F804901A467CE7C3
:1012F0000122C8F804204446002027E740F2545356
:101300009C4524D84FEA954000F17C0E4FEA4E01EF
:10131000F1E503F1100CA9E654282CD84FEA11325C
:1013200002F16E094FEA49024CE7BC68616821F09E
:1013300003000BE74FEA0B50010D00297FF4B0AE1C
:10134000B8680CEB090141F001044460F0E6FC21AF
:101350004FF07E0ECFE51A48C0F80080A9E604F1F0
:101360000801184C304600F091F82368E0E60120AF
:101370004FF0000BBBE6B0F5AA7F06D84FEAD13399
:1013800003F177094FEA49021CE740F254539842AF
:101390000FD84FEA914000F17C094FEA490211E76A
:1013A0007C6824EA00047C604EE7400008F10408F1
:1013B00051E7FC224FF07E0904E700BF44040020FF
:1013C0005008002074080020704700BF704700BF1D
:1013D00038B5074C0023054608462360FFF7BCFCE0
:1013E000431C00D038BD21680029FBD0296038BDDE
:1013F000AC080020F8B5224D0F460446FFF7E4FF85
:10140000AB685E6826F0030606F6EF70C11B0A0B98
:10141000571E3F03B7F5805F07DB00212046FFF72B
:10142000D7FFAB689919884204D02046FFF7CEFF5A
:101430000020F8BD79422046FFF7CAFF01300DD0E9
:10144000104BA8681A68F61B46F00106D71B4660C9
:1014500020461F60FFF7BAFF0120F8BD002120469B
:10146000FFF7B6FFAB68C21A0F2ADEDD064909682E
:10147000401A044942F0010208605A60D5E700BFF3
:101480004404002074080020500800202DE9F04199
:101490000D460646002955D0FFF796FF55F8041C67
:1014A000DFF86CC1A5F1080421F00103E218DCF8B3
:1014B00008005768904227F0030765D011F001013A
:1014C000576032D00021D0194068C00706D4DB191C
:1014D000906800294AD0D268C260906043F0010051
:1014E0006060E350E1B9B3F5007F2DD35A0A042AB6
:1014F00066D89809383042000CEB820E4449DEF879
:101500000820724562D0506820F003018B4202D25D
:1015100092689645F7D1D068E060A260D46084609C
:101520003046BDE8F041FFF751BF55F8085C641B39
:101530000CF10808A06840452B443FD0E568C56021
:10154000A860C0E7BDE8F081DD080CEBC502DCF85F
:1015500004009168E260AB10012505FA03F318431B
:10156000A160CCF804009460CC60D9E7294DA84272
:10157000B1D143F00102CCF81440CCF81040E06047
:10158000A0606260E350CBE7FF18CB0707D455F8A3
:10159000081C641A7F18E368A068C36098601E4A3C
:1015A000CCF80840116847F001038F426360B7D35D
:1015B0001A4A30461168FFF71DFFB1E7012182E7A3
:1015C000142A0CD802F15B00420095E74B688010AA
:1015D000012505FA00F003434B6010469CE7542AAE
:1015E00003D8180B6E30420086E7B2F5AA7F03D805
:1015F000D80B773042007FE740F254518A4203D83B
:10160000980C7C30420077E7FC227E2074E700BF14
:10161000440400204C0400204C08002070080020E6
:1016200000000000000000000100000000000000B9
:1016300000000000000000000000000000000000AA
:10164000000000000000000000000000000000009A
:10165000000000000000000000000000000000008A
:10166000000000000000000000000000000000007A
:101A40000000000000000000000000200000000076
:101A5000007A030A000000000000000001020304F5
:101A600006070809000000000000000044040020F0
:101A7000440400204C0400204C04002054040020A6
:101A8000540400205C0400205C0400206404002056
:101A9000640400206C0400206C0400207404002006
:101AA000740400207C0400207C04002084040020B6
:101AB000840400208C0400208C0400209404002066
:101AC000940400209C0400209C040020A404002016
:101AD000A4040020AC040020AC040020B4040020C6
:101AE000B4040020BC040020BC040020C404002076
:101AF000C4040020CC040020CC040020D404002026
:101B0000D4040020DC040020DC040020E4040020D5
:101B1000E4040020EC040020EC040020F404002085
:101B2000F4040020FC040020FC0400200405002034
:101B3000040500200C0500200C05002014050020E1
:101B4000140500201C0500201C0500202405002091
:101B5000240500202C0500202C0500203405002041
:101B6000340500203C0500203C05002044050020F1
:101B7000440500204C0500204C05002054050020A1
:101B8000540500205C0500205C0500206405002051
:101B9000640500206C0500206C0500207405002001
:101BA000740500207C0500207C05002084050020B1
:101BB000840500208C0500208C0500209405002061
:101BC000940500209C0500209C050020A405002011
:101BD000A4050020AC050020AC050020B4050020C1
:101BE000B4050020BC050020BC050020C405002071
:101BF000C4050020CC050020CC050020D405002021
:101C0000D4050020DC050020DC050020E4050020D0
:101C1000E4050020EC050020EC050020F405002080
:101C2000F4050020FC050020FC050020040600202F
:101C3000040600200C0600200C06002014060020DC
:101C4000140600201C0600201C060020240600208C
:101C5000240600202C0600202C060020340600203C
:101C6000340600203C0600203C06002044060020EC
:101C7000440600204C0600204C060020540600209C
:101C8000540600205C0600205C060020640600204C
:101C9000640600206C0600206C06002074060020FC
:101CA000740600207C0600207C06002084060020AC
:101CB000840600208C0600208C060020940600205C
:101CC000940600209C0600209C060020A40600200C
:101CD000A4060020AC060020AC060020B4060020BC
:101CE000B4060020BC060020BC060020C40600206C
:101CF000C4060020CC060020CC060020D40600201C
:101D0000D4060020DC060020DC060020E4060020CB
:101D1000E4060020EC060020EC060020F40600207B
:101D2000F4060020FC060020FC060020040700202A
:101D3000040700200C0700200C07002014070020D7
:101D4000140700201C0700201C0700202407002087
:101D5000240700202C0700202C0700203407002037
:101D6000340700203C0700203C07002044070020E7
:101D7000440700204C0700204C0700205407002097
:101D8000540700205C0700205C0700206407002047
:101D9000640700206C0700206C07002074070020F7
:101DA000740700207C0700207C07002084070020A7
:101DB000840700208C0700208C0700209407002057
:101DC000940700209C0700209C070020A407002007
:101DD000A4070020AC070020AC070020B4070020B7
:101DE000B4070020BC070020BC070020C407002067
:101DF000C4070020CC070020CC070020D407002017
:101E0000D4070020DC070020DC070020E4070020C6
:101E1000E4070020EC070020EC070020F407002076
:101E2000F4070020FC070020FC0700200408002025
:101E3000040800200C0800200C08002014080020D2
:101E4000140800201C0800201C0800202408002082
:101E5000240800202C0800202C0800203408002032
:101E6000340800203C0800203C080020000002004C
:041E7000FFFFFFFF72
:0400000508000000EF
:00000001FF
